{
  "_format": "hh-sol-artifact-1",
  "contractName": "VoteContract",
  "sourceName": "contracts/VoteContract.sol",
  "abi": [
    {
      "inputs": [],
      "stateMutability": "nonpayable",
      "type": "constructor"
    },
    {
      "inputs": [
        {
          "internalType": "string",
          "name": "name",
          "type": "string"
        }
      ],
      "name": "addCandidate",
      "outputs": [],
      "stateMutability": "nonpayable",
      "type": "function"
    },
    {
      "inputs": [
        {
          "internalType": "address",
          "name": "_address",
          "type": "address"
        }
      ],
      "name": "addToWhitelist",
      "outputs": [],
      "stateMutability": "nonpayable",
      "type": "function"
    },
    {
      "inputs": [],
      "name": "getCandidateCount",
      "outputs": [
        {
          "internalType": "uint256",
          "name": "",
          "type": "uint256"
        }
      ],
      "stateMutability": "view",
      "type": "function"
    },
    {
      "inputs": [],
      "name": "getCandidateData",
      "outputs": [
        {
          "internalType": "string[]",
          "name": "",
          "type": "string[]"
        }
      ],
      "stateMutability": "view",
      "type": "function"
    },
    {
      "inputs": [],
      "name": "getResult",
      "outputs": [
        {
          "internalType": "uint256[]",
          "name": "",
          "type": "uint256[]"
        }
      ],
      "stateMutability": "view",
      "type": "function"
    },
    {
      "inputs": [],
      "name": "hasVoted",
      "outputs": [
        {
          "internalType": "bool",
          "name": "",
          "type": "bool"
        }
      ],
      "stateMutability": "view",
      "type": "function"
    },
    {
      "inputs": [],
      "name": "isOwner",
      "outputs": [
        {
          "internalType": "bool",
          "name": "",
          "type": "bool"
        }
      ],
      "stateMutability": "view",
      "type": "function"
    },
    {
      "inputs": [],
      "name": "isVotingEnabled",
      "outputs": [
        {
          "internalType": "bool",
          "name": "",
          "type": "bool"
        }
      ],
      "stateMutability": "view",
      "type": "function"
    },
    {
      "inputs": [
        {
          "internalType": "address",
          "name": "_address",
          "type": "address"
        }
      ],
      "name": "isWhitelisted",
      "outputs": [
        {
          "internalType": "bool",
          "name": "",
          "type": "bool"
        }
      ],
      "stateMutability": "view",
      "type": "function"
    },
    {
      "inputs": [
        {
          "internalType": "address",
          "name": "_address",
          "type": "address"
        }
      ],
      "name": "removeFromWhitelist",
      "outputs": [],
      "stateMutability": "nonpayable",
      "type": "function"
    },
    {
      "inputs": [],
      "name": "toggleVotingEnabled",
      "outputs": [],
      "stateMutability": "nonpayable",
      "type": "function"
    },
    {
      "inputs": [
        {
          "internalType": "uint256",
          "name": "index",
          "type": "uint256"
        }
      ],
      "name": "vote",
      "outputs": [],
      "stateMutability": "nonpayable",
      "type": "function"
    }
  ],
  "bytecode": "0x608060405234801561001057600080fd5b50600080546001600160a01b0319163390811782558152600460205260409020805460ff19166001179055610ab68061004a6000396000f3fe608060405234801561001057600080fd5b50600436106100b45760003560e01c806350a4ca1b1161007157806350a4ca1b1461014d57806364821338146101625780638ab1d6811461017a5780638f32d59b1461018d578063de292789146101a0578063e43252d7146101b557600080fd5b80630121b93f146100b957806308405853146100ce57806330a56347146100d65780633af32abf146100ec57806341ecf70014610128578063462e91ec1461013a575b600080fd5b6100cc6100c73660046106a5565b6101c8565b005b6100cc610374565b6005546040519081526020015b60405180910390f35b6101186100fa3660046106be565b6001600160a01b031660009081526004602052604090205460ff1690565b60405190151581526020016100e3565b600054600160a01b900460ff16610118565b6100cc610148366004610704565b6103bf565b61015561042f565b6040516100e391906107b5565b3360009081526001602052604090205460ff16610118565b6100cc6101883660046106be565b610569565b6000546001600160a01b03163314610118565b6101a86105b4565b6040516100e39190610847565b6100cc6101c33660046106be565b610657565b600054600160a01b900460ff1661021f5760405162461bcd60e51b8152602060048201526016602482015275566f74696e67206973206e6f7420656e61626c65642160501b60448201526064015b60405180910390fd5b600081815260036020526040812080546102389061088b565b90501161027d5760405162461bcd60e51b815260206004820152601360248201527210d85b991a59185d1948139bdd08119bdd5b99606a1b6044820152606401610216565b3360009081526004602052604090205460ff166102dc5760405162461bcd60e51b815260206004820152601b60248201527f596f7520617265206e6f7420616c6c6f77656420746f20766f746500000000006044820152606401610216565b3360009081526001602052604090205460ff16156103355760405162461bcd60e51b8152602060048201526016602482015275165bdd481a185d9948185b1c9958591e481d9bdd195960521b6044820152606401610216565b600081815260026020526040812080549161034f836108d5565b9091555050336000908152600160208190526040909120805460ff1916909117905550565b6000546001600160a01b0316331461039e5760405162461bcd60e51b8152600401610216906108ee565b6000805460ff60a01b198116600160a01b9182900460ff1615909102179055565b6000546001600160a01b031633146103e95760405162461bcd60e51b8152600401610216906108ee565b600580549060006103f9836108d5565b909155505060055460009081526003602052604090206104198282610991565b5050600554600090815260026020526040812055565b6060600060055460016104429190610a51565b67ffffffffffffffff81111561045a5761045a6106ee565b60405190808252806020026020018201604052801561048d57816020015b60608152602001906001900390816104785790505b50905060015b600554811161056357600081815260036020526040902080546104b59061088b565b80601f01602080910402602001604051908101604052809291908181526020018280546104e19061088b565b801561052e5780601f106105035761010080835404028352916020019161052e565b820191906000526020600020905b81548152906001019060200180831161051157829003601f168201915b505050505082828151811061054557610545610a6a565b6020026020010181905250808061055b906108d5565b915050610493565b50919050565b6000546001600160a01b031633146105935760405162461bcd60e51b8152600401610216906108ee565b6001600160a01b03166000908152600460205260409020805460ff19169055565b6060600060055460016105c79190610a51565b67ffffffffffffffff8111156105df576105df6106ee565b604051908082528060200260200182016040528015610608578160200160208202803683370190505b50905060015b600554811161056357600081815260026020526040902054825183908390811061063a5761063a610a6a565b60209081029190910101528061064f816108d5565b91505061060e565b6000546001600160a01b031633146106815760405162461bcd60e51b8152600401610216906108ee565b6001600160a01b03166000908152600460205260409020805460ff19166001179055565b6000602082840312156106b757600080fd5b5035919050565b6000602082840312156106d057600080fd5b81356001600160a01b03811681146106e757600080fd5b9392505050565b634e487b7160e01b600052604160045260246000fd5b60006020828403121561071657600080fd5b813567ffffffffffffffff8082111561072e57600080fd5b818401915084601f83011261074257600080fd5b813581811115610754576107546106ee565b604051601f8201601f19908116603f0116810190838211818310171561077c5761077c6106ee565b8160405282815287602084870101111561079557600080fd5b826020860160208301376000928101602001929092525095945050505050565b6000602080830181845280855180835260408601915060408160051b87010192508387016000805b8381101561083957888603603f1901855282518051808852835b81811015610812578281018a01518982018b015289016107f7565b508781018901849052601f01601f19169096018701955093860193918601916001016107dd565b509398975050505050505050565b6020808252825182820181905260009190848201906040850190845b8181101561087f57835183529284019291840191600101610863565b50909695505050505050565b600181811c9082168061089f57607f821691505b60208210810361056357634e487b7160e01b600052602260045260246000fd5b634e487b7160e01b600052601160045260246000fd5b6000600182016108e7576108e76108bf565b5060010190565b60208082526034908201527f4163636573732044656e696564203a206f6e6c79206f776e65722063616e2061604082015273636365737320746869732066756e6374696f6e2160601b606082015260800190565b601f82111561098c57600081815260208120601f850160051c810160208610156109695750805b601f850160051c820191505b8181101561098857828155600101610975565b5050505b505050565b815167ffffffffffffffff8111156109ab576109ab6106ee565b6109bf816109b9845461088b565b84610942565b602080601f8311600181146109f457600084156109dc5750858301515b600019600386901b1c1916600185901b178555610988565b600085815260208120601f198616915b82811015610a2357888601518255948401946001909101908401610a04565b5085821015610a415787850151600019600388901b60f8161c191681555b5050505050600190811b01905550565b80820180821115610a6457610a646108bf565b92915050565b634e487b7160e01b600052603260045260246000fdfea2646970667358221220a94b25f47c304ba738645760d015ca1fbbd08c821d5b1d03cfbaa1d313699ffa64736f6c63430008110033",
  "linkReferences": {},
  "deployedLinkReferences": {}
}